{
  "contractName": "Counter",
  "abi": [
    {
      "inputs": [],
      "name": "IncrementCount",
      "outputs": [],
      "stateMutability": "nonpayable",
      "type": "function"
    },
    {
      "inputs": [],
      "name": "DecrementCount",
      "outputs": [],
      "stateMutability": "nonpayable",
      "type": "function"
    },
    {
      "inputs": [],
      "name": "ViewCount",
      "outputs": [
        {
          "internalType": "uint256",
          "name": "",
          "type": "uint256"
        }
      ],
      "stateMutability": "view",
      "type": "function",
      "constant": true
    }
  ],
  "bytecode": "0x60806040526000805534801561001457600080fd5b506101b8806100246000396000f3fe608060405234801561001057600080fd5b50600436106100415760003560e01c806330498ce6146100465780633d20db2514610050578063aef92fc11461005a575b600080fd5b61004e610078565b005b610058610093565b005b6100626100ae565b60405161006f91906100d0565b60405180910390f35b600160008082825461008a919061011a565b92505081905550565b60016000808282546100a5919061014e565b92505081905550565b60008054905090565b6000819050919050565b6100ca816100b7565b82525050565b60006020820190506100e560008301846100c1565b92915050565b7f4e487b7100000000000000000000000000000000000000000000000000000000600052601160045260246000fd5b6000610125826100b7565b9150610130836100b7565b9250828203905081811115610148576101476100eb565b5b92915050565b6000610159826100b7565b9150610164836100b7565b925082820190508082111561017c5761017b6100eb565b5b9291505056fea264697066735822122030aee7228b15a3c7700a742a62229ba7b33c6a2d1e6f29b4cd760d8492ae8c1964736f6c63430008110033",
  "immutableReferences": {},
  "source": " // SPDX-License-Identifier: MIT\r\npragma solidity >=0.4.21 <8.10.0;\r\n\r\ncontract Counter {\r\n  uint count = 0;\r\n  \r\n  function IncrementCount() public{\r\n    count += 1;\r\n  }\r\n\r\n  function DecrementCount() public {\r\n    count -= 1;\r\n  }\r\n\r\n  function ViewCount() public view returns (uint) {\r\n    return count;\r\n  }\r\n  \r\n}\r\n",
  "sourcePath": "C:\\Users\\zktkr\\test\\Counter\\contracts\\Counter.sol",
  "compiler": {
    "name": "solc",
    "version": "0.8.17+commit.8df45f5f.Emscripten.clang"
  },
  "schemaVersion": "3.4.10",
  "updatedAt": "2022-11-25T12:50:42.160Z",
  "networkType": "ethereum",
  "devdoc": {
    "kind": "dev",
    "methods": {},
    "version": 1
  },
  "userdoc": {
    "kind": "user",
    "methods": {},
    "version": 1
  }
}