{
  "contractName": "ItemManager",
  "abi": [
    {
      "anonymous": false,
      "inputs": [
        {
          "indexed": false,
          "internalType": "uint256",
          "name": "_itemIndex",
          "type": "uint256"
        },
        {
          "indexed": false,
          "internalType": "uint256",
          "name": "_step",
          "type": "uint256"
        },
        {
          "indexed": false,
          "internalType": "address",
          "name": "_address",
          "type": "address"
        }
      ],
      "name": "SupplyChainStep",
      "type": "event"
    },
    {
      "inputs": [],
      "name": "_owner",
      "outputs": [
        {
          "internalType": "address",
          "name": "",
          "type": "address"
        }
      ],
      "stateMutability": "view",
      "type": "function",
      "constant": true
    },
    {
      "inputs": [],
      "name": "isOwner",
      "outputs": [
        {
          "internalType": "bool",
          "name": "",
          "type": "bool"
        }
      ],
      "stateMutability": "view",
      "type": "function",
      "constant": true
    },
    {
      "inputs": [
        {
          "internalType": "uint256",
          "name": "",
          "type": "uint256"
        }
      ],
      "name": "items",
      "outputs": [
        {
          "internalType": "contract Item",
          "name": "_item",
          "type": "address"
        },
        {
          "internalType": "enum ItemManager.SupplyChainSteps",
          "name": "_step",
          "type": "uint8"
        },
        {
          "internalType": "string",
          "name": "_identifier",
          "type": "string"
        }
      ],
      "stateMutability": "view",
      "type": "function",
      "constant": true
    },
    {
      "inputs": [
        {
          "internalType": "string",
          "name": "_identifier",
          "type": "string"
        },
        {
          "internalType": "uint256",
          "name": "_priceInWei",
          "type": "uint256"
        }
      ],
      "name": "createItem",
      "outputs": [],
      "stateMutability": "nonpayable",
      "type": "function"
    },
    {
      "inputs": [
        {
          "internalType": "uint256",
          "name": "_index",
          "type": "uint256"
        }
      ],
      "name": "triggerPayment",
      "outputs": [],
      "stateMutability": "payable",
      "type": "function",
      "payable": true
    },
    {
      "inputs": [
        {
          "internalType": "uint256",
          "name": "_index",
          "type": "uint256"
        }
      ],
      "name": "triggerDelivery",
      "outputs": [],
      "stateMutability": "nonpayable",
      "type": "function"
    }
  ],
  "bytecode": "0x608060405234801561001057600080fd5b50336000806101000a81548173ffffffffffffffffffffffffffffffffffffffff021916908373ffffffffffffffffffffffffffffffffffffffff160217905550611c25806100606000396000f3fe6080604052600436106200005c5760003560e01c8063800fb83f14620000615780638c55174214620000815780638f32d59b14620000af578063b2bdfa7b14620000df578063bfb231d2146200010f578063cd31831e1462000155575b600080fd5b6200007f6004803603810190620000799190620009aa565b62000183565b005b3480156200008e57600080fd5b50620000ad6004803603810190620000a7919062000b3e565b62000432565b005b348015620000bc57600080fd5b50620000c76200061c565b604051620000d6919062000bc1565b60405180910390f35b348015620000ec57600080fd5b50620000f762000673565b60405162000106919062000c23565b60405180910390f35b3480156200011c57600080fd5b506200013b6004803603810190620001359190620009aa565b62000697565b6040516200014c9392919062000db4565b60405180910390f35b3480156200016257600080fd5b506200018160048036038101906200017b9190620009aa565b6200077e565b005b60006001600083815260200190815260200160002060000160009054906101000a900473ffffffffffffffffffffffffffffffffffffffff1690503373ffffffffffffffffffffffffffffffffffffffff168173ffffffffffffffffffffffffffffffffffffffff16146200022f576040517f08c379a0000000000000000000000000000000000000000000000000000000008152600401620002269062000e6e565b60405180910390fd5b348173ffffffffffffffffffffffffffffffffffffffff16633c8da5886040518163ffffffff1660e01b8152600401602060405180830381865afa1580156200027c573d6000803e3d6000fd5b505050506040513d601f19601f82011682018060405250810190620002a2919062000ea7565b14620002e5576040517f08c379a0000000000000000000000000000000000000000000000000000000008152600401620002dc9062000f29565b60405180910390fd5b60006002811115620002fc57620002fb62000cab565b5b6001600084815260200190815260200160002060000160149054906101000a900460ff16600281111562000335576200033462000cab565b5b1462000378576040517f08c379a00000000000000000000000000000000000000000000000000000000081526004016200036f9062000fc1565b60405180910390fd5b600180600084815260200190815260200160002060000160146101000a81548160ff02191690836002811115620003b457620003b362000cab565b5b02179055507fa4035636e99f06b7651a604c1019fa4e8779fe68ef27eeb74dff2de348f6199b826001600085815260200190815260200160002060000160149054906101000a900460ff16600281111562000414576200041362000cab565b5b83604051620004269392919062000ff4565b60405180910390a15050565b6200043c6200061c565b6200047e576040517f08c379a0000000000000000000000000000000000000000000000000000000008152600401620004759062001081565b60405180910390fd5b6000308260025460405162000493906200094d565b620004a193929190620010dc565b604051809103906000f080158015620004be573d6000803e3d6000fd5b5090508060016000600254815260200190815260200160002060000160006101000a81548173ffffffffffffffffffffffffffffffffffffffff021916908373ffffffffffffffffffffffffffffffffffffffff160217905550600060016000600254815260200190815260200160002060000160146101000a81548160ff0219169083600281111562000557576200055662000cab565b5b021790555082600160006002548152602001908152602001600020600101908162000583919062001345565b507fa4035636e99f06b7651a604c1019fa4e8779fe68ef27eeb74dff2de348f6199b60025460016000600254815260200190815260200160002060000160149054906101000a900460ff166002811115620005e357620005e262000cab565b5b83604051620005f59392919062000ff4565b60405180910390a16002600081548092919062000612906200145b565b9190505550505050565b60008060009054906101000a900473ffffffffffffffffffffffffffffffffffffffff1673ffffffffffffffffffffffffffffffffffffffff163373ffffffffffffffffffffffffffffffffffffffff1614905090565b60008054906101000a900473ffffffffffffffffffffffffffffffffffffffff1681565b60016020528060005260406000206000915090508060000160009054906101000a900473ffffffffffffffffffffffffffffffffffffffff16908060000160149054906101000a900460ff1690806001018054620006f59062001148565b80601f0160208091040260200160405190810160405280929190818152602001828054620007239062001148565b8015620007745780601f10620007485761010080835404028352916020019162000774565b820191906000526020600020905b8154815290600101906020018083116200075657829003601f168201915b5050505050905083565b620007886200061c565b620007ca576040517f08c379a0000000000000000000000000000000000000000000000000000000008152600401620007c19062001081565b60405180910390fd5b60016002811115620007e157620007e062000cab565b5b6001600083815260200190815260200160002060000160149054906101000a900460ff1660028111156200081a576200081962000cab565b5b146200085d576040517f08c379a0000000000000000000000000000000000000000000000000000000008152600401620008549062000fc1565b60405180910390fd5b60026001600083815260200190815260200160002060000160146101000a81548160ff021916908360028111156200089a576200089962000cab565b5b02179055507fa4035636e99f06b7651a604c1019fa4e8779fe68ef27eeb74dff2de348f6199b816001600084815260200190815260200160002060000160149054906101000a900460ff166002811115620008fa57620008f962000cab565b5b6001600085815260200190815260200160002060000160009054906101000a900473ffffffffffffffffffffffffffffffffffffffff16604051620009429392919062000ff4565b60405180910390a150565b61074780620014a983390190565b6000604051905090565b600080fd5b600080fd5b6000819050919050565b62000984816200096f565b81146200099057600080fd5b50565b600081359050620009a48162000979565b92915050565b600060208284031215620009c357620009c262000965565b5b6000620009d38482850162000993565b91505092915050565b600080fd5b600080fd5b6000601f19601f8301169050919050565b7f4e487b7100000000000000000000000000000000000000000000000000000000600052604160045260246000fd5b62000a3182620009e6565b810181811067ffffffffffffffff8211171562000a535762000a52620009f7565b5b80604052505050565b600062000a686200095b565b905062000a76828262000a26565b919050565b600067ffffffffffffffff82111562000a995762000a98620009f7565b5b62000aa482620009e6565b9050602081019050919050565b82818337600083830152505050565b600062000ad762000ad18462000a7b565b62000a5c565b90508281526020810184848401111562000af65762000af5620009e1565b5b62000b0384828562000ab1565b509392505050565b600082601f83011262000b235762000b22620009dc565b5b813562000b3584826020860162000ac0565b91505092915050565b6000806040838503121562000b585762000b5762000965565b5b600083013567ffffffffffffffff81111562000b795762000b786200096a565b5b62000b878582860162000b0b565b925050602062000b9a8582860162000993565b9150509250929050565b60008115159050919050565b62000bbb8162000ba4565b82525050565b600060208201905062000bd8600083018462000bb0565b92915050565b600073ffffffffffffffffffffffffffffffffffffffff82169050919050565b600062000c0b8262000bde565b9050919050565b62000c1d8162000bfe565b82525050565b600060208201905062000c3a600083018462000c12565b92915050565b6000819050919050565b600062000c6b62000c6562000c5f8462000bde565b62000c40565b62000bde565b9050919050565b600062000c7f8262000c4a565b9050919050565b600062000c938262000c72565b9050919050565b62000ca58162000c86565b82525050565b7f4e487b7100000000000000000000000000000000000000000000000000000000600052602160045260246000fd5b6003811062000cee5762000ced62000cab565b5b50565b600081905062000d018262000cda565b919050565b600062000d138262000cf1565b9050919050565b62000d258162000d06565b82525050565b600081519050919050565b600082825260208201905092915050565b60005b8381101562000d6757808201518184015260208101905062000d4a565b60008484015250505050565b600062000d808262000d2b565b62000d8c818562000d36565b935062000d9e81856020860162000d47565b62000da981620009e6565b840191505092915050565b600060608201905062000dcb600083018662000c9a565b62000dda602083018562000d1a565b818103604083015262000dee818462000d73565b9050949350505050565b7f4f6e6c79206974656d732061726520616c6c6f77656420746f2075706461746560008201527f207468656d73656c766573000000000000000000000000000000000000000000602082015250565b600062000e56602b8362000d36565b915062000e638262000df8565b604082019050919050565b6000602082019050818103600083015262000e898162000e47565b9050919050565b60008151905062000ea18162000979565b92915050565b60006020828403121562000ec05762000ebf62000965565b5b600062000ed08482850162000e90565b91505092915050565b7f4e6f742066756c6c792070616964207965740000000000000000000000000000600082015250565b600062000f1160128362000d36565b915062000f1e8262000ed9565b602082019050919050565b6000602082019050818103600083015262000f448162000f02565b9050919050565b7f4974656d206973206675727468657220696e2074686520737570706c7920636860008201527f61696e0000000000000000000000000000000000000000000000000000000000602082015250565b600062000fa960238362000d36565b915062000fb68262000f4b565b604082019050919050565b6000602082019050818103600083015262000fdc8162000f9a565b9050919050565b62000fee816200096f565b82525050565b60006060820190506200100b600083018662000fe3565b6200101a602083018562000fe3565b62001029604083018462000c12565b949350505050565b7f596f7520617265206e6f7420746865206f776e65720000000000000000000000600082015250565b60006200106960158362000d36565b9150620010768262001031565b602082019050919050565b600060208201905081810360008301526200109c816200105a565b9050919050565b6000620010b08262000c4a565b9050919050565b6000620010c482620010a3565b9050919050565b620010d681620010b7565b82525050565b6000606082019050620010f36000830186620010cb565b62001102602083018562000fe3565b62001111604083018462000fe3565b949350505050565b7f4e487b7100000000000000000000000000000000000000000000000000000000600052602260045260246000fd5b600060028204905060018216806200116157607f821691505b60208210810362001177576200117662001119565b5b50919050565b60008190508160005260206000209050919050565b60006020601f8301049050919050565b600082821b905092915050565b600060088302620011e17fffffffffffffffffffffffffffffffffffffffffffffffffffffffffffffffff82620011a2565b620011ed8683620011a2565b95508019841693508086168417925050509392505050565b600062001226620012206200121a846200096f565b62000c40565b6200096f565b9050919050565b6000819050919050565b620012428362001205565b6200125a62001251826200122d565b848454620011af565b825550505050565b600090565b6200127162001262565b6200127e81848462001237565b505050565b5b81811015620012a6576200129a60008262001267565b60018101905062001284565b5050565b601f821115620012f557620012bf816200117d565b620012ca8462001192565b81016020851015620012da578190505b620012f2620012e98562001192565b83018262001283565b50505b505050565b600082821c905092915050565b60006200131a60001984600802620012fa565b1980831691505092915050565b600062001335838362001307565b9150826002028217905092915050565b620013508262000d2b565b67ffffffffffffffff8111156200136c576200136b620009f7565b5b62001378825462001148565b62001385828285620012aa565b600060209050601f831160018114620013bd5760008415620013a8578287015190505b620013b4858262001327565b86555062001424565b601f198416620013cd866200117d565b60005b82811015620013f757848901518255600182019150602085019450602081019050620013d0565b8683101562001417578489015162001413601f89168262001307565b8355505b6001600288020188555050505b505050505050565b7f4e487b7100000000000000000000000000000000000000000000000000000000600052601160045260246000fd5b600062001468826200096f565b91507fffffffffffffffffffffffffffffffffffffffffffffffffffffffffffffffff82036200149d576200149c6200142c565b5b60018201905091905056fe608060405234801561001057600080fd5b5060405161074738038061074783398181016040528101906100329190610134565b816000819055508060028190555082600360006101000a81548173ffffffffffffffffffffffffffffffffffffffff021916908373ffffffffffffffffffffffffffffffffffffffff160217905550505050610187565b600080fd5b600073ffffffffffffffffffffffffffffffffffffffff82169050919050565b60006100b98261008e565b9050919050565b60006100cb826100ae565b9050919050565b6100db816100c0565b81146100e657600080fd5b50565b6000815190506100f8816100d2565b92915050565b6000819050919050565b610111816100fe565b811461011c57600080fd5b50565b60008151905061012e81610108565b92915050565b60008060006060848603121561014d5761014c610089565b5b600061015b868287016100e9565b935050602061016c8682870161011f565b925050604061017d8682870161011f565b9150509250925092565b6105b1806101966000396000f3fe6080604052600436106100385760003560e01c80632986c0e51461024e5780633c8da5881461027957806383d12eef146102a457610240565b36610240576000543414610081576040517f08c379a000000000000000000000000000000000000000000000000000000000815260040161007890610364565b60405180910390fd5b6000600154146100c6576040517f08c379a00000000000000000000000000000000000000000000000000000000081526004016100bd906103d0565b60405180910390fd5b34600160008282546100d89190610429565b925050819055506000600360009054906101000a900473ffffffffffffffffffffffffffffffffffffffff1673ffffffffffffffffffffffffffffffffffffffff163460025460405160240161012e919061046c565b6040516020818303038152906040527f800fb83f000000000000000000000000000000000000000000000000000000007bffffffffffffffffffffffffffffffffffffffffffffffffffffffff19166020820180517bffffffffffffffffffffffffffffffffffffffffffffffffffffffff83818316178352505050506040516101b891906104f8565b60006040518083038185875af1925050503d80600081146101f5576040519150601f19603f3d011682016040523d82523d6000602084013e6101fa565b606091505b505090508061023e576040517f08c379a00000000000000000000000000000000000000000000000000000000081526004016102359061055b565b60405180910390fd5b005b34801561024c57600080fd5b005b34801561025a57600080fd5b506102636102cf565b604051610270919061046c565b60405180910390f35b34801561028557600080fd5b5061028e6102d5565b60405161029b919061046c565b60405180910390f35b3480156102b057600080fd5b506102b96102db565b6040516102c6919061046c565b60405180910390f35b60025481565b60005481565b60015481565b600082825260208201905092915050565b7f576520646f6e277420737570706f7274207061727469616c207061796d656e7460008201527f7300000000000000000000000000000000000000000000000000000000000000602082015250565b600061034e6021836102e1565b9150610359826102f2565b604082019050919050565b6000602082019050818103600083015261037d81610341565b9050919050565b7f4974656d20697320616c72656164792070616964210000000000000000000000600082015250565b60006103ba6015836102e1565b91506103c582610384565b602082019050919050565b600060208201905081810360008301526103e9816103ad565b9050919050565b6000819050919050565b7f4e487b7100000000000000000000000000000000000000000000000000000000600052601160045260246000fd5b6000610434826103f0565b915061043f836103f0565b9250828201905080821115610457576104566103fa565b5b92915050565b610466816103f0565b82525050565b6000602082019050610481600083018461045d565b92915050565b600081519050919050565b600081905092915050565b60005b838110156104bb5780820151818401526020810190506104a0565b60008484015250505050565b60006104d282610487565b6104dc8185610492565b93506104ec81856020860161049d565b80840191505092915050565b600061050482846104c7565b915081905092915050565b7f44656c697665727920646964206e6f7420776f726b0000000000000000000000600082015250565b60006105456015836102e1565b91506105508261050f565b602082019050919050565b6000602082019050818103600083015261057481610538565b905091905056fea2646970667358221220026af1d0441b9c4545e9002ea6d04a418d3eea3937c0cc145f544093f39fd8ac64736f6c63430008110033a2646970667358221220b3416a741af06bc1d937fe17df1235a8f6578d48ad4bea392a4a9a43dc2fbb5f64736f6c63430008110033",
  "immutableReferences": {},
  "source": "\r\n//SPDX-License-Identifier: MIT\r\n\r\npragma solidity >=0.4.21 <8.10.0;\r\n\r\n\r\nimport \"./Item.sol\";\r\nimport \"./Ownable.sol\";\r\n\r\ncontract ItemManager is Ownable {\r\n\r\n    struct S_Item {\r\n        Item _item;\r\n        ItemManager.SupplyChainSteps _step;\r\n        string _identifier;\r\n    }\r\n    mapping(uint => S_Item) public items;\r\n    uint index;\r\n\r\n    enum SupplyChainSteps {Created, Paid, Delivered}\r\n\r\n    event SupplyChainStep(uint _itemIndex, uint _step, address _address);\r\n\r\n    function createItem(string memory _identifier, uint _priceInWei) public onlyOwner {\r\n        Item item = new Item(this, _priceInWei, index);\r\n        items[index]._item = item;\r\n        items[index]._step = SupplyChainSteps.Created;\r\n        items[index]._identifier = _identifier;\r\n        emit SupplyChainStep(index, uint(items[index]._step), address(item));\r\n        index++;\r\n    }\r\n\r\n    function triggerPayment(uint _index) public payable {\r\n        Item item = items[_index]._item;\r\n        require(address(item) == msg.sender, \"Only items are allowed to update themselves\");\r\n        require(item.priceInWei() == msg.value, \"Not fully paid yet\");\r\n        require(items[_index]._step == SupplyChainSteps.Created, \"Item is further in the supply chain\");\r\n        items[_index]._step = SupplyChainSteps.Paid;\r\n        emit SupplyChainStep(_index, uint(items[_index]._step), address(item));\r\n    }\r\n\r\n    function triggerDelivery(uint _index) public onlyOwner {\r\n        require(items[_index]._step == SupplyChainSteps.Paid, \"Item is further in the supply chain\");\r\n        items[_index]._step = SupplyChainSteps.Delivered;\r\n        emit SupplyChainStep(_index, uint(items[_index]._step), address(items[_index]._item));\r\n    }\r\n}\r\n",
  "sourcePath": "C:\\Users\\zktkr\\test\\Counter\\contracts\\ItemManager.sol",
  "compiler": {
    "name": "solc",
    "version": "0.8.17+commit.8df45f5f.Emscripten.clang"
  },
  "schemaVersion": "3.4.10",
  "updatedAt": "2022-11-25T12:50:41.944Z",
  "networkType": "ethereum",
  "devdoc": {
    "kind": "dev",
    "methods": {},
    "version": 1
  },
  "userdoc": {
    "kind": "user",
    "methods": {},
    "version": 1
  }
}